{
  "contractName": "Payment",
  "abi": [
    {
      "inputs": [],
      "name": "noOfFunders",
      "outputs": [
        {
          "internalType": "uint256",
          "name": "",
          "type": "uint256"
        }
      ],
      "stateMutability": "view",
      "type": "function"
    },
    {
      "stateMutability": "payable",
      "type": "receive"
    },
    {
      "inputs": [],
      "name": "transfer",
      "outputs": [],
      "stateMutability": "payable",
      "type": "function"
    }
  ],
  "bytecode": "0x608060405234801561000f575f80fd5b506101198061001d5f395ff3fe6080604052600436106028575f3560e01c806347cac45c1460325780638a4068dd14605757602e565b36602e57005b5f80fd5b348015603c575f80fd5b506043605f565b604051604e919060cc565b60405180910390f35b605d6064565b005b5f5481565b3360015f805481526020019081526020015f205f6101000a81548173ffffffffffffffffffffffffffffffffffffffff021916908373ffffffffffffffffffffffffffffffffffffffff160217905550565b5f819050919050565b60c68160b6565b82525050565b5f60208201905060dd5f83018460bf565b9291505056fea2646970667358221220377792cfb1d42a332ae376a78d660f9f851cde927d717ec58b8d61d123bec0b464736f6c63430008140033",
  "immutableReferences": {},
  "source": "// SPDX-License-Identifier: MIT\npragma solidity >=0.4.22 <0.9.0;\n\ncontract Payment {\n    uint256 public noOfFunders;\n\n    mapping(uint256 => address) private funders;\n\n    receive() external payable {}\n\n    function transfer() external payable {\n        funders[noOfFunders] = msg.sender;\n    }\n}",
  "sourcePath": "/Users/squareboat/Desktop/Good-Will/contracts/Payment.sol",
  "compiler": {
    "name": "solc",
    "version": "0.8.20+commit.a1b79de6.Emscripten.clang"
  },
  "schemaVersion": "3.4.14",
  "updatedAt": "2023-06-08T07:43:22.581Z",
  "devdoc": {
    "kind": "dev",
    "methods": {},
    "version": 1
  },
  "userdoc": {
    "kind": "user",
    "methods": {},
    "version": 1
  }
}