{
  "contractName": "Payment1",
  "abi": [
    {
      "inputs": [],
      "name": "noOfFunders",
      "outputs": [
        {
          "internalType": "uint256",
          "name": "",
          "type": "uint256"
        }
      ],
      "stateMutability": "view",
      "type": "function",
      "constant": true
    },
    {
      "stateMutability": "payable",
      "type": "receive",
      "payable": true
    },
    {
      "inputs": [],
      "name": "transfer",
      "outputs": [],
      "stateMutability": "payable",
      "type": "function",
      "payable": true
    }
  ],
  "bytecode": "0x608060405234801561001057600080fd5b50610123806100206000396000f3fe60806040526004361060295760003560e01c806347cac45c1460345780638a4068dd14605a57602f565b36602f57005b600080fd5b348015603f57600080fd5b5060466062565b6040516051919060d4565b60405180910390f35b60606068565b005b60005481565b33600160008054815260200190815260200160002060006101000a81548173ffffffffffffffffffffffffffffffffffffffff021916908373ffffffffffffffffffffffffffffffffffffffff160217905550565b6000819050919050565b60ce8160bd565b82525050565b600060208201905060e7600083018460c7565b9291505056fea2646970667358221220ee593d56276fdbc48a0eeecaa7736af389b2f4d5cd03f0e7f7443208002c890a64736f6c63430008090033",
  "immutableReferences": {},
  "source": "// SPDX-License-Identifier: MIT\npragma solidity >=0.4.22 <0.9.0;\n\ncontract Payment1 {\n    uint256 public noOfFunders;\n\n    mapping(uint256 => address) private funders;\n\n    receive() external payable {}\n\n    function transfer() external payable {\n        funders[noOfFunders] = msg.sender;\n    }\n}",
  "sourcePath": "/Users/squareboat/Desktop/Good-Will/contracts/Payment1.sol",
  "compiler": {
    "name": "solc",
    "version": "0.8.9+commit.e5eed63a.Emscripten.clang"
  },
  "schemaVersion": "3.4.14",
  "updatedAt": "2023-06-08T09:54:56.574Z",
  "networkType": "ethereum",
  "devdoc": {
    "kind": "dev",
    "methods": {},
    "version": 1
  },
  "userdoc": {
    "kind": "user",
    "methods": {},
    "version": 1
  }
}